:10033600506C6561736520656E74657220796F75A2
:100346007220636F6D6D616E643A006C65646F6EEA
:10035600004C4544204F4E210D09006C65646F66C4
:0D03660066004C4544204F4646210D09001D
:06003D00E4F5CAF5C9223A
:10020F0012003D1201A47BFF7A0379361204177F87
:10021F00C87E001200267BFF7A03795112047850B2
:10022F0010C2CD1204CF7BFF7A03795712041780C7
:10023F00E57BFF7A03796112047850DAD2CD12048C
:0C024F00CF7BFF7A03796812041780CA85
:1004E200011700011800C100011900C101011A0021
:0204F200C10245
:100026007D527C03ED1D70011C144C70F7EF1F70A0
:06003600011E144E70EAE9
:01003C0022A1
:1001A40053B27F53B17FE5A2543F4440F5A2538735
:1001B4007F759850438E40538EFE53890F43892098
:1001C400758BDC758DDCC2ABD28E759A50438E0470
:1001D40075D7E075D6FE438E1075AC1043AC404322
:1001E400D10275D5E075D4FE43D1087584104384DB
:1001F4004043D12075D3E075D2FE43D18043AF0193
:0B02040043AF0843AF10D2ACD2AF22D2
:0804F5008F993099FDC2992294
:1003A8008B1B8A1C891DAB1BAA1CA91D1200466049
:1003B80013051DE51D7002051C14F9120046FF12F5
:0503C80004F580E222B3
:100003008B218A2289238B0E8A0F89107B007A0029
:0E0013007930120122E94A4B6002D322C32247
:100496007E007F147D007B007A00793012005FE4D5
:0304A600F5172225
:0300230002037362
:10037300C0E0C0D075D000C000C2AC309819C2989C
:1003830074302517F8A6990517C3E51794147480DC
:1003930094804003751700309902C299D2ACD00003
:0503A300D0D0D0E032D3
:0804FD002000FD8F9BD20022BC
:1003CD008B248A258926AB24AA25A92612004660EE
:1003DD00130526E5267002052514F9120046FF12B5
:0503ED0004FD80E22286
:10043C008B278A2889298B0E8A0F89107B017A00D9
:0E044C007900120122E94A4B6002D322C3223A
:1004A9007E007F147D007B017A00790012005FE4F1
:0304B900F5182211
:0300430002025B5B
:10025B00C0E0C083C082C0D053AFFEE59A540160AA
:10026B0021539AFE74002518F582E43400F583E5DA
:10027B009BF00518C3E518941474809480400375A3
:10028B001800E59A54026005539AFDC20043AF0172
:09029B00D0D0D082D083D0E03233
:080505002001FD8FADD201229F
:1003F2008B2A8A2B892CAB2AAA2BA92C12004660A5
:1004020013052CE52C7002052B14F9120046FF127D
:05041200050580E22257
:10045A008B2D8A2E892F8B0E8A0F89107B017A00A9
:0E046A007914120122E94A4B6002D322C32208
:1004BC007E007F147D007B017A00791412005FE4CA
:0304CC00F51922FD
:03008B000202A4CA
:1002A400C0E0C083C082C0D053AFF7E5AC54016056
:1002B4002153ACFE74142519F582E43400F583E56A
:1002C400ADF00519C3E51994147480948040037546
:1002D4001900E5AC5402600553ACFDC20143AF08FC
:0902E400D0D0D082D083D0E032EA
:08050D002002FD8F85D20222BD
:100417008B088A09890AAB08AA09A90A120046604B
:1004270013050AE50A7002050914F9120046FF12BE
:05043700050D80E2222A
:100478008B088A09890A8B0E8A0F89107B017A00FA
:0E0488007928120122E94A4B6002D322C322D6
:1004CF007E007F147D007B017A00792812005FE4A3
:0304DF00F51A22E9
:030093000202ED79
:1002ED00C0E0C083C082C0D053AFEFE5845401603D
:1002FD00215384FE7428251AF582E43400F583E534
:10030D0085F0051AC3E51A94147480948040037522
:10031D001A00E584540260055384FDC20243AF10F8
:09032D00D0D0D082D083D0E032A0
:0300000002009665
:0C009600787FE4F6D8FD7581430200DDA0
:10004600BB010689828A83E0225002E722BBFE02B8
:09005600E32289828A83E49322EB
:100122008B0B8A0C890DAB0EAA0FA9101200466028
:1001320063AB0BAA0CA90D120046605F850E1185F8
:100142000F128510138B148A158916AB11AA12A9E6
:1001520013120046FF6023AB14AA15A9161200461B
:100162006F7017042513F513E43512F51274012587
:1001720016F516E43515F51580D1AB11AA12A9139F
:100182001200467002800D7401250DF50DE4350C48
:10019200F50C809DAB0BAA0CA90D227B007A00798D
:0201A200002239
:10005F00EF4E6012EF60010EEDBB010B89828A83B8
:10006F00F0A3DFFCDEFA2289F05007F709DFFCA9C5
:0C007F00F022BBFEFCF309DFFCA9F0221C
:1000A20002020FE493A3F8E493A34003F68001F263
:1000B20008DFF48029E493A3F85407240CC8C3335F
:1000C200C4540F4420C8834004F456800146F6DF2E
:1000D200E4800B01020408102040809004E2E47ED8
:1000E200019360BCA3FF543F30E509541FFEE49323
:1000F200A360010ECF54C025E060A840B8E493A3EA
:10010200FAE493A3F8E493A3C8C582C8CAC583CA14
:10011200F0A3C8C582C8CAC583CADFE9DEE780BECC
:0104F4000007
:00000001FF
